:100000000C9446000C9465000C9465000C946500FB
:100010000C9465000C9465000C9465000C946500CC
:100020000C9465000C9465000C9465000C946500BC
:100030000C9465000C9465000C9465000C946500AC
:100040000C9465000C9465000C9465000C9465009C
:100050000C9465000C9465000C9465000C9465008C
:100060000C9465000C9465000C9465000C9465007C
:100070000C9465000C9465000C9465000C9465006C
:100080000C9465000C9465000C94650011241FBE4F
:10009000CFEFD0E1DEBFCDBF12E0A0E0B1E0E2EDF6
:1000A000F8E200E00BBF02C007900D92A830B10744
:1000B000D9F712E0A8E0B2E001C01D92A532B10765
:1000C000E1F70E94F7110C9467140C940000EF9272
:1000D000FF920F931F937B018C0120E030E040E002
:1000E0005FE40E94130488238CF0C801B70120E06C
:1000F00030E040E05FE40E94DF010E94D1049B01F8
:10010000AC01205030404040504806C0C801B70103
:100110000E94D1049B01AC01B901CA011F910F914A
:10012000FF90EF900895A0E0B0E0E9E9F0E00C94D2
:100130003014DC012B01FA019C91923008F439C192
:10014000EB018881823008F433C1943069F4843043
:1001500009F02FC111969C9111978981981709F484
:1001600028C1A0E0B1E025C1843009F421C182306A
:10017000A9F4923009F01DC19A01AD0188E0EA01AD
:100180000990AE01E90109929E018150C1F7E20197
:10019000898111969C918923818308C1923009F449
:1001A00007C112962D903C901397EB018A819B8199
:1001B0001496AD90BD90CD90DC901797EC80FD80AB
:1001C0000E811F819101281B390BB90137FF04C033
:1001D00066277727621B730B603271050CF061C0D4
:1001E000121613066CF537014801062E04C09694CA
:1001F0008794779467940A94D2F721E030E040E046
:1002000050E004C0220F331F441F551F6A95D2F7D8
:1002100021503040404050402E213F214023512367
:10022000211531054105510521F021E030E040E084
:1002300050E079018A01E628F728082919293CC0ED
:10024000232BD1F1260E371E35014601062E04C0A0
:1002500096948794779467940A94D2F721E030E0DB
:1002600040E050E004C0220F331F441F551F6A9521
:10027000D2F721503040404050402A213B214C21B0
:100280005D21211531054105510521F021E030E0C6
:1002900040E050E059016A01A628B728C828D928AB
:1002A0000BC0821593052CF01C01AA24BB24650108
:1002B00003C0EE24FF24870111969C91D201119670
:1002C0008C91981709F445C0992339F0A80197013A
:1002D0002A193B094C095D0906C0A60195012E1992
:1002E0003F09400B510B57FD08C011823382228217
:1002F00024833583468357831DC081E08183338205
:10030000228288279927DC01821B930BA40BB50B53
:1003100084839583A683B7830DC0220F331F441FA8
:10032000551F2483358346835783828193810197A8
:10033000938382832481358146815781DA01C90103
:100340000197A109B1098F5F9F4FAF4FBF4328F3BA
:100350000BC0918333822282EA0CFB1C0C1D1D1DF5
:10036000E482F5820683178383E0808324813581CC
:100370004681578157FF1AC0C901AA2797FDA0954A
:10038000BA2F81709070A070B070569547953795D0
:100390002795822B932BA42BB52B84839583A6833F
:1003A000B78382819381019693838283DF0101C0A9
:1003B000D201CD01CDB7DEB7E2E10C944C14A0E23E
:1003C000B0E0E5EEF1E00C943C1469837A838B8312
:1003D0009C832D833E834F835887E9E0EE2EF12CDA
:1003E000EC0EFD1ECE010196B7010E9449068E015A
:1003F0000F5E1F4FCE010596B8010E9449068A89FB
:1004000091E089278A8BC701B801AE01475E5F4F33
:100410000E9493000E947405A096E6E00C94581484
:10042000A0E2B0E0E6E1F2E00C943C1469837A8348
:100430008B839C832D833E834F835887F9E0EF2E77
:10044000F12CEC0EFD1ECE010196B7010E9449066B
:100450008E010F5E1F4FCE010596B8010E9449061E
:10046000C701B801AE01475E5F4F0E9493000E9432
:100470007405A096E6E00C945814A0E2B0E0E3E422
:10048000F2E00C94301469837A838B839C832D83F0
:100490003E834F835887CE010196BE01675F7F4F31
:1004A0000E944906CE010596BE016F5E7F4F0E94F5
:1004B00049069985923088F089898230C8F0943055
:1004C00019F4823051F404C0843029F4923081F45C
:1004D00080E091E0C6C0923049F420E09A858A8994
:1004E000981321E02A87CE010996BBC0823049F4D7
:1004F00020E09A858A89981321E02A8BCE014196C3
:10050000B0C02D843E844F8458886D887E888F8843
:10051000988CEE24FF248701AA24BB24650140E0C7
:1005200050E060E070E0E0E0F0E0C10181709070C8
:10053000892BE9F0E60CF71C081D191D9A01AB0187
:100540002A0D3B1D4C1D5D1D80E090E0A0E0B0E059
:10055000E614F7040805190520F481E090E0A0E016
:10056000B0E0BA01A901480F591F6A1F7B1FAA0CEE
:10057000BB1CCC1CDD1C97FE08C081E090E0A0E015
:10058000B0E0A82AB92ACA2ADB2A3196E032F1055E
:1005900049F0660C771C881C991C56944794379434
:1005A0002794C3CFFA85EA892B893C898B859C8562
:1005B000280F391F2E5F3F4F17C0CA0181709070FE
:1005C000892B61F016950795F794E79480E090E009
:1005D000A0E0B0E8E82AF92A0A2B1B2B769567954C
:1005E000579547952F5F3F4F77FDE7CF0CC0440FDE
:1005F000551F661F771F17FD4160EE0CFF1C001F83
:10060000111F21503040403090E0590790E06907B9
:1006100090E4790760F32B8F3C8FDB01CA018F7761
:100620009070A070B07080349105A105B10561F49F
:1006300047FD0AC0E114F1040105110529F0405CF1
:100640005F4F6F4F7F4F40781A8EFE1711F081E099
:100650008A8F4D8F5E8F6F8F78A383E0898FCE0155
:1006600049960E947405A096E2E10C944C14A8E10E
:10067000B0E0EDE3F3E00C94381469837A838B8364
:100680009C832D833E834F835887B9E0EB2EF12C5A
:10069000EC0EFD1ECE010196B7010E9449068E01A7
:1006A0000F5E1F4FCE010596B8010E9449062985AD
:1006B000223008F47EC03989323010F4B8017CC091
:1006C0008A859A8989278A87243011F0223031F46B
:1006D000231709F06EC060E071E06EC0343039F469
:1006E0001D861E861F86188A1C861B8604C0323013
:1006F00021F484E08987B7015FC02B853C858B8915
:100700009C89281B390B3C872B87ED84FE840F8541
:100710001889AD88BE88CF88D88CEA14FB040C05F4
:100720001D0540F4EE0CFF1C001F111F215030402E
:100730003C872B8720E030E040E050E080E090E014
:10074000A0E0B0E460E070E0EA14FB040C051D05D5
:1007500040F0282B392B4A2B5B2BEA18FB080C099D
:100760001D09B695A79597958795EE0CFF1C001F60
:10077000111F6F5F7F4F6F31710531F7DA01C901CA
:100780008F779070A070B07080349105A105B1058D
:1007900061F427FD0AC0E114F1040105110529F0F7
:1007A000205C3F4F4F4F5F4F20782D873E874F870C
:1007B000588BBE01675F7F4FCB010E94740568961E
:1007C000EAE00C945414A8E1B0E0E9EEF3E00C94F4
:1007D0003C1469837A838B839C832D833E834F8370
:1007E000588789E0E82EF12CEC0EFD1ECE01019613
:1007F000B7010E9449068E010F5E1F4FCE0105967C
:10080000B8010E9449068985823040F0898982308A
:1008100028F0C701B8010E94C10601C08FEF689699
:10082000E6E00C945814A8E1B0E0E9E1F4E00C949F
:100830003C1469837A838B839C832D833E834F830F
:10084000588789E0E82EF12CEC0EFD1ECE010196B2
:10085000B7010E9449068E010F5E1F4FCE0105961B
:10086000B8010E9449068985823040F0898982302A
:1008700028F0C701B8010E94C10601C08FEF689639
:10088000E6E00C945814A8E1B0E0E9E4F4E00C943C
:100890003C1469837A838B839C832D833E834F83AF
:1008A000588789E0E82EF12CEC0EFD1ECE01019652
:1008B000B7010E9449068E010F5E1F4FCE010596BB
:1008C000B8010E9449068985823040F089898230CA
:1008D00028F0C701B8010E94C10601C081E06896F6
:1008E000E6E00C945814A8E0B0E0E9E7F4E00C94DA
:1008F00039149B01AC0183E08983DA01C90188279F
:10090000B7FD83959927AA27BB27B82E2115310556
:100910004105510519F482E089833AC08823A9F082
:10092000203080E0380780E0480780E8580729F445
:1009300060E070E080E09FEC30C0EE24FF2487018F
:10094000E21AF30A040B150B02C079018A018EE149
:10095000C82ED12CDC82CB82ED82FE820F831887D9
:10096000C801B7010E94250501971816190684F4DD
:10097000082E04C0EE0CFF1C001F111F0A94D2F7B2
:10098000ED82FE820F831887C81AD90ADC82CB82D7
:10099000BA82CE0101960E9474052896E9E00C9473
:1009A0005514ACE0B0E0E7EDF4E00C94401469833A
:1009B0007A838B839C83CE010196BE016B5F7F4F50
:1009C0000E9449068D81823061F1823050F184307D
:1009D00021F48E81882351F12EC02F81388537FD77
:1009E00020C06E812F3131051CF06623F9F023C041
:1009F0008EE190E0821B930B29853A854B855C85BF
:100A000004C056954795379527958A95D2F7662362
:100A1000B1F050954095309521953F4F4F4F5F4F26
:100A20000EC020E030E040E050E009C02FEF3FEF83
:100A30004FEF5FE704C020E030E040E050E8B9014C
:100A4000CA012C96E2E00C945C14EF92FF920F9393
:100A50001F937B018C0180E0E81680E0F80681E0BE
:100A6000080780E0180788F48FEFE816F104010505
:100A7000110531F028F088E090E0A0E0B0E017C068
:100A800080E090E0A0E0B0E012C080E0E81680E0F6
:100A9000F80680E0080781E0180728F088E190E078
:100AA000A0E0B0E004C080E190E0A0E0B0E020E28F
:100AB00030E040E050E0281B390B4A0B5B0B04C0D0
:100AC00016950795F794E7948A95D2F7F701E85FB2
:100AD000FE4F8081281B310941095109C9011F912D
:100AE0000F91FF90EF900895DF92EF92FF920F9396
:100AF0001F93FC01E480F58006811781D1808081FD
:100B0000823048F480E090E0A0E1B0E0E82AF92AE1
:100B10000A2B1B2BA5C0843009F49FC0823021F41E
:100B2000EE24FF24870105C0E114F104010511053D
:100B300019F4E0E0F0E096C0628173819FEF6238C3
:100B400079070CF05BC022E83FEF261B370B2A31F8
:100B500031052CF020E030E040E050E02AC0B80140
:100B6000A701022E04C076956795579547950A947C
:100B7000D2F781E090E0A0E0B0E004C0880F991FB8
:100B8000AA1FBB1F2A95D2F70197A109B1098E218F
:100B90009F21A023B1230097A105B10521F081E099
:100BA00090E0A0E0B0E09A01AB01282B392B4A2B52
:100BB0005B2BDA01C9018F779070A070B070803420
:100BC0009105A105B10539F427FF09C0205C3F4F0D
:100BD0004F4F5F4F04C0215C3F4F4F4F5F4FE0E0EE
:100BE000F0E02030A0E03A07A0E04A07A0E45A076E
:100BF00010F0E1E0F0E079018A0127C0603871056A
:100C000064F5FB01E158FF4FD801C7018F77907061
:100C1000A070B07080349105A105B10539F4E7FEEC
:100C20000DC080E490E0A0E0B0E004C08FE390E06D
:100C3000A0E0B0E0E80EF91E0A1F1B1F17FF05C059
:100C400016950795F794E794319687E016950795E2
:100C5000F794E7948A95D1F705C0EE24FF24870125
:100C6000EFEFF0E06E2F679566276795902F9F77DF
:100C7000D794DD24D7948E2F8695492F462B582F55
:100C80005D29B701CA011F910F91FF90EF90DF908E
:100C90000895FC01DB01408151812281622F6F7731
:100CA00070E0221F2227221F9381892F880F822B19
:100CB000282F30E0991F9927991F11969C9311971F
:100CC00021153105A9F5411551056105710511F48D
:100CD00082E037C082E89FEF13969C938E93129721
:100CE0009A01AB0167E0220F331F441F551F6A951D
:100CF000D1F783E08C930DC0220F331F441F551F83
:100D000012968D919C911397019713969C938E93B5
:100D10001297203080E0380780E0480780E45807C9
:100D200058F314962D933D934D935C931797089524
:100D30002F3F310579F4411551056105710519F40D
:100D400084E08C93089564FF03C081E08C9312C00B
:100D50001C9210C02F57304013963C932E9312973D
:100D600083E08C9387E0440F551F661F771F8A9599
:100D7000D1F7706414964D935D936D937C931797A0
:100D800008951F93DC01FB019C91923008F447C049
:100D90008081823008F443C0943051F411961C9144
:100DA000843099F58181682F70E0611B71093FC023
:100DB000843021F0923031F48230B9F1818188237E
:100DC00089F12DC011961C9111978230F1F081812B
:100DD0001817D9F412962D913C9113978281938123
:100DE0008217930794F028173907BCF014968D9159
:100DF0009D910D90BC91A02D248135814681578114
:100E0000281739074A075B0718F4112341F00AC075
:100E100082179307A407B50740F4112319F061E086
:100E200070E005C06FEF7FEF02C060E070E0CB01C3
:100E30001F910895DF93CF93CDB7DEB7AAE7B0E057
:100E4000EAE7F0E0808180688C93AAE7B0E0EAE707
:100E5000F0E0808184608C93AAE7B0E0EAE7F0E0FC
:100E6000808182608C93AAE7B0E0EAE7F0E08081BD
:100E700081608C93ACE7B0E0ECE7F0E080818064C7
:100E80008C93ACE7B0E0ECE7F0E080818F778C9357
:100E9000ACE7B0E0ECE7F0E080818F7D8C93CF9100
:100EA000DF910895DF93CF930F92CDB7DEB789839B
:100EB000ACE7B0E0ECE7F0E08081807E8C93ACE7BB
:100EC000B0E0ECE7F0E090818981892B8C93AAE770
:100ED000B0E0EAE7F0E0808180648C93EAE7F0E03C
:100EE000808182958F70882F90E08170907000973C
:100EF000A9F3AAE7B0E0EAE7F0E0808180618C9393
:100F0000E8E7F0E0808191810F90CF91DF91089523
:100F1000AF92BF92CF92DF92EF92FF920F931F9307
:100F2000DF93CF93CDB7DEB764970FB6F894DEBFEB
:100F30000FBECDBF6D837E838F83988729873A87C5
:100F40004B875C87ED86FE860F87188BA98ABA8A45
:100F5000CB8ADC8A29853A854B855C858D859E8583
:100F6000AF85B88979018A01E81AF90A0A0B1B0BC7
:100F700029A13AA14BA15CA189899A89AB89BC8935
:100F8000281B390B4A0B5B0BC801B7010E94EF13FA
:100F90007B018C0129853A854B855C858D819E81FD
:100FA000AF81B885281B390B4A0B5B0BC801B70111
:100FB0000E940E14DA01C9019C01AD0189A19AA118
:100FC000ABA1BCA1821B930BA40BB50B89839A83A5
:100FD000AB83BC8389819A81AB81BC81BC01CD018B
:100FE00064960FB6F894DEBF0FBECDBFCF91DF91F0
:100FF0001F910F91FF90EF90DF90CF90BF90AF9037
:101000000895DF93CF93CDB7DEB727970FB6F89447
:10101000DEBF0FBECDBF89836A834B838981843055
:1010200008F026C18A81883008F022C18B81813086
:1010300009F08BC08981282F30E03F832E838E8179
:101040009F818230910509F444C02E813F81233075
:10105000310554F48E819F81009799F02E813F8154
:101060002130310511F104C18E819F8183309105BA
:1010700009F443C02E813F812430310509F451C069
:10108000F7C0ABE3B0E0EBE3F0E08081482F8A816A
:10109000282F30E081E090E0022E02C0880F991FD7
:1010A0000A94E2F7842B8C93E3C0A8E3B0E0E8E372
:1010B000F0E08081482F8A81282F30E081E090E0A5
:1010C000022E02C0880F991F0A94E2F7842B8C939A
:1010D000CFC0A5E3B0E0E5E3F0E08081482F8A814E
:1010E000282F30E081E090E0022E02C0880F991F87
:1010F0000A94E2F7842B8C93BBC0A2E3B0E0E2E356
:10110000F0E08081482F8A81282F30E081E090E054
:10111000022E02C0880F991F0A94E2F7842B8C9349
:10112000A7C0A3E2B0E0E3E2F0E08081482F8A812B
:10113000282F30E081E090E0022E02C0880F991F36
:101140000A94E2F7842B8C9393C08B81882309F057
:101150008FC08981282F30E03D832C838C819D8135
:101160008230910509F446C02C813D812330310540
:1011700054F48C819D81009799F02C813D81213020
:10118000310519F175C08C819D818330910509F479
:1011900046C02C813D812430310509F455C068C01A
:1011A000ABE3B0E0EBE3F0E08081482F8A81282FA9
:1011B00030E081E090E0022E02C0880F991F0A946F
:1011C000E2F7809584238C9353C0A8E3B0E0E8E372
:1011D000F0E08081482F8A81282F30E081E090E084
:1011E000022E02C0880F991F0A94E2F7809584238B
:1011F0008C933EC0A5E3B0E0E5E3F0E08081482FAA
:101200008A81282F30E081E090E0022E02C0880F12
:10121000991F0A94E2F7809584238C9329C0A2E356
:10122000B0E0E2E3F0E08081482F8A81282F30E0AF
:1012300081E090E0022E02C0880F991F0A94E2F725
:10124000809584238C9314C0A3E2B0E0E3E2F0E045
:101250008081482F8A81282F30E081E090E0022EA3
:1012600002C0880F991F0A94E2F7809584238C931B
:1012700027960FB6F894DEBF0FBECDBFCF91DF919A
:101280000895DF93CF9300D000D00F92CDB7DEB793
:101290008A836B838A81843008F085C08B81883093
:1012A00008F081C08A81282F30E03D832C834C8157
:1012B0005D814230510509F441C08C819D818330AC
:1012C00091055CF42C813D812115310599F04C810B
:1012D0005D814130510501F166C08C819D81833073
:1012E000910509F43DC02C813D812430310509F47C
:1012F00049C059C0E9E3F0E08081282F30E08B81BC
:10130000882F90E0A90102C0559547958A95E2F78C
:10131000CA018170898347C0E6E3F0E08081282F0D
:1013200030E08B81882F90E0A90102C05595479548
:101330008A95E2F7CA018170898335C0E3E3F0E062
:101340008081282F30E08B81882F90E0A90102C096
:10135000559547958A95E2F7CA018170898323C024
:10136000E0E3F0E08081282F30E08B81882F90E04F
:10137000A90102C0559547958A95E2F7CA01817087
:10138000898311C0E1E2F0E08081282F30E08B8179
:10139000882F90E0A90102C0559547958A95E2F7FC
:1013A000CA018170898389810F900F900F900F90EF
:1013B0000F90CF91DF910895DF93CF93CDB7DEB734
:1013C00027970FB6F894DEBF0FBECDBF89836A831F
:1013D0004B838981843008F026C18A81883008F0E7
:1013E00022C18B81813009F08BC08981282F30E0A8
:1013F0003F832E838E819F818230910509F444C002
:101400002E813F812330310554F48E819F810097D6
:1014100099F02E813F812130310511F104C18E8177
:101420009F818330910509F443C02E813F81243090
:10143000310509F451C0F7C0AAE3B0E0EAE3F0E0F7
:101440008081482F8A81282F30E081E090E0022EB1
:1014500002C0880F991F0A94E2F7842B8C93E3C093
:10146000A7E3B0E0E7E3F0E08081482F8A81282FEE
:1014700030E081E090E0022E02C0880F991F0A94AC
:10148000E2F7842B8C93CFC0A4E3B0E0E4E3F0E078
:101490008081482F8A81282F30E081E090E0022E61
:1014A00002C0880F991F0A94E2F7842B8C93BBC06B
:1014B000A1E3B0E0E1E3F0E08081482F8A81282FAA
:1014C00030E081E090E0022E02C0880F991F0A945C
:1014D000E2F7842B8C93A7C0A2E2B0E0E2E2F0E056
:1014E0008081482F8A81282F30E081E090E0022E11
:1014F00002C0880F991F0A94E2F7842B8C9393C043
:101500008B81882309F08FC08981282F30E03D83AB
:101510002C838C819D818230910509F446C02C81F9
:101520003D812330310554F48C819D81009799F0E1
:101530002C813D812130310519F175C08C819D814F
:101540008330910509F446C02C813D81243031055A
:1015500009F455C068C0AAE3B0E0EAE3F0E0808196
:10156000482F8A81282F30E081E090E0022E02C0CF
:10157000880F991F0A94E2F7809584238C9353C0B7
:10158000A7E3B0E0E7E3F0E08081482F8A81282FCD
:1015900030E081E090E0022E02C0880F991F0A948B
:1015A000E2F7809584238C933EC0A4E3B0E0E4E3AB
:1015B000F0E08081482F8A81282F30E081E090E0A0
:1015C000022E02C0880F991F0A94E2F780958423A7
:1015D0008C9329C0A1E3B0E0E1E3F0E08081482FE3
:1015E0008A81282F30E081E090E0022E02C0880F2F
:1015F000991F0A94E2F7809584238C9314C0A2E289
:10160000B0E0E2E2F0E08081482F8A81282F30E0CC
:1016100081E090E0022E02C0880F991F0A94E2F741
:10162000809584238C9327960FB6F894DEBF0FBE67
:10163000CDBFCF91DF910895DF93CF9300D000D03D
:10164000CDB7DEB789836A838981843008F08EC084
:101650008A81883008F08AC08981282F30E03C8355
:101660002B838B819C818230910509F444C02B81AE
:101670003C812330310554F48B819C81009799F093
:101680002B813C812130310511F170C08B819C810F
:101690008330910509F443C02B813C81243031050E
:1016A00009F451C063C0ABE3B0E0EBE3F0E080814C
:1016B000482F8A81282F30E081E090E0022E02C07E
:1016C000880F991F0A94E2F784278C934FC0A8E3F0
:1016D000B0E0E8E3F0E08081482F8A81282F30E0F5
:1016E00081E090E0022E02C0880F991F0A94E2F771
:1016F00084278C933BC0A5E3B0E0E5E3F0E0808174
:10170000482F8A81282F30E081E090E0022E02C02D
:10171000880F991F0A94E2F784278C9327C0A2E3CD
:10172000B0E0E2E3F0E08081482F8A81282F30E0AA
:1017300081E090E0022E02C0880F991F0A94E2F720
:1017400084278C9313C0A3E2B0E0E3E2F0E0808151
:10175000482F8A81282F30E081E090E0022E02C0DD
:10176000880F991F0A94E2F784278C930F900F90AB
:101770000F900F90CF91DF910895DF93CF9300D01A
:1017800000D0CDB7DEB789836A838981282F30E006
:101790003C832B838B819C818230910521F12B81AD
:1017A0003C812330310554F48B819C81009789F072
:1017B0002B813C812130310589F023C08B819C81B4
:1017C00083309105A9F02B813C8124303105A9F0AB
:1017D00018C0EAE3F0E08A81808313C0E7E3F0E019
:1017E0008A8180830EC0E4E3F0E08A81808309C0AF
:1017F000E1E3F0E08A81808304C0E2E2F0E08A81E4
:1018000080830F900F900F900F90CF91DF910895EC
:10181000DF93CF9300D000D0CDB7DEB789836A8342
:101820008981282F30E03C832B838B819C818230FF
:10183000910521F12B813C812330310554F48B81BA
:101840009C81009789F02B813C812130310589F002
:1018500023C08B819C8183309105A9F02B813C8131
:1018600024303105A9F018C0EBE3F0E08A818083D1
:1018700013C0E8E3F0E08A8180830EC0E5E3F0E086
:101880008A81808309C0E2E3F0E08A81808304C01A
:10189000E3E2F0E08A8180830F900F900F900F9029
:1018A000CF91DF910895DF93CF9300D00F92CDB702
:1018B000DEB789838981282F30E03B832A838A81A0
:1018C0009B818230910551F12A813B812330310582
:1018D00054F48A819B81009789F02A813B812130D1
:1018E0003105A1F032C08A819B8183309105F1F0EE
:1018F0002A813B812430310509F127C0ABE3B0E0F8
:10190000EBE3F0E0808180958C931FC0A8E3B0E00A
:10191000E8E3F0E0808180958C9317C0A5E3B0E008
:10192000E5E3F0E0808180958C930FC0A2E3B0E006
:10193000E2E3F0E0808180958C9307C0A3E2B0E001
:10194000E3E2F0E0808180958C930F900F900F90F0
:10195000CF91DF910895DF93CF9300D000D0CDB722
:10196000DEB78A838A81282F30E03C832B838B81EA
:101970009C818230910521F12B813C8123303105FE
:1019800054F48B819C81009789F02B813C8121301C
:10199000310589F023C08B819C8183309105A9F0AA
:1019A0002B813C8124303105A9F018C0E9E3F0E037
:1019B0008081898313C0E6E3F0E0808189830EC0D3
:1019C000E3E3F0E08081898309C0E0E3F0E0808117
:1019D000898304C0E1E2F0E08081898389810F90EE
:1019E0000F900F900F90CF91DF9108950F931F9359
:1019F000DF93CF93CDB7DEB700E710E0E1E7F0E08B
:101A0000108220E030E040E050E460E070E080E8E8
:101A100092E40E943703DC01CB01BC01CD010E949E
:101A20006700DC01CB01F8018083CF91DF911F912A
:101A30000F910895DF93CF9300D00F92CDB7DEB70B
:101A40008A83E4E7F0E084EA8083E4E7F0E08081E1
:101A50008823DCF7E1E7F0E08081887F8983898152
:101A6000883011F01B8220C0E3E7F0E08A81808398
:101A7000E4E7F0E084E88083E4E7F0E08081882315
:101A8000DCF7E1E7F0E08081887F89838981883114
:101A900019F481E08B8308C08981803219F482E0D7
:101AA0008B8302C083E08B838B810F900F900F900C
:101AB000CF91DF910895DF93CF9300D00F92CDB7F0
:101AC000DEB78A83E4E7F0E084EA8083E4E7F0E0CD
:101AD00080818823DCF7E1E7F0E08081887F8983DB
:101AE0008981803111F01B8220C0E3E7F0E08A8118
:101AF0008083E4E7F0E084E88083E4E7F0E080813D
:101B00008823DCF7E1E7F0E08081887F89838981A1
:101B1000803419F481E08B8308C08981803219F404
:101B200082E08B8302C083E08B838B810F900F90C8
:101B30000F90CF91DF910895DF93CF93CDB7DEB7AC
:101B4000E4E7F0E084E98083E4E7F0E08081882F37
:101B500090E0807190700097B9F7CF91DF91089570
:101B6000DF93CF9300D0CDB7DEB78A83E4E7F0E010
:101B700084EA8083E4E7F0E080818823DCF7E1E712
:101B8000F0E08081887F89838981883079F7E3E775
:101B9000F0E08A818083E4E7F0E084E88083E4E792
:101BA000F0E080818823DCF7E1E7F0E08081887F46
:101BB00089838981883119F00E949C0DD7CF0F90BD
:101BC0000F90CF91DF910895DF93CF9300D00F92C4
:101BD000CDB7DEB78A83E3E7F0E08A818083E4E76C
:101BE000F0E084E88083E4E7F0E080818823DCF79C
:101BF000E1E7F0E08081887F89838981883211F470
:101C00001B8208C08981803319F481E08B8302C074
:101C100082E08B838B810F900F900F90CF91DF919B
:101C20000895DF93CF93CDB7DEB7E4E7F0E084EC1F
:101C30008083E4E7F0E080818823DCF7E3E7F0E0ED
:101C40008081CF91DF910895DF93CF93CDB7DEB739
:101C5000E4E7F0E084E88083E4E7F0E08081882333
:101C6000DCF7E3E7F0E08081CF91DF910895DF9327
:101C7000CF93CDB7DEB7AFE4B0E0EFE4F0E0808122
:101C80008F7B8C93AFE4B0E0EFE4F0E0808180687C
:101C90008C93AFE4B0E0EFE4F0E080818F7E8C9332
:101CA000AFE4B0E0EFE4F0E0808180628C93AFE4D9
:101CB000B0E0EFE4F0E080818E7F8C93AFE4B0E0A1
:101CC000EFE4F0E0808182608C93AEE4B0E0EEE47B
:101CD000F0E0808188608C93AEE4B0E0EEE4F0E068
:101CE000808180618C93AEE4B0E0EEE4F0E080812E
:101CF0008E7F8C93AEE4B0E0EEE4F0E08081826011
:101D00008C93AEE4B0E0EEE4F0E080818B7F8C93C6
:101D1000CF91DF910895DF93CF93CDB7DEB7ABE8D6
:101D2000B0E0EBE8F0E080818F7B8C93ABE8B0E033
:101D3000EBE8F0E0808180688C93ABE8B0E0EBE802
:101D4000F0E080818F7E8C93ABE8B0E0EBE8F0E0D0
:101D5000808180628C93ABE8B0E0EBE8F0E08081BA
:101D60008E7F8C93ABE8B0E0EBE8F0E0808182609E
:101D70008C93AAE8B0E0EAE8F0E0808188608C9378
:101D8000AAE8B0E0EAE8F0E0808180618C93AAE8FC
:101D9000B0E0EAE8F0E080818E7F8C93AAE8B0E0C2
:101DA000EAE8F0E0808182608C93AAE8B0E0EAE89B
:101DB000F0E080818B7F8C93CF91DF910895DF934A
:101DC000CF9300D0CDB7DEB79A838983E6E4F0E005
:101DD00089819A81918380830F900F90CF91DF91B9
:101DE0000895DF93CF9300D0CDB7DEB79A83898370
:101DF000E0E8F0E089819A81918380830F900F90D1
:101E0000CF91DF910895DF93CF9300D0CDB7DEB7A8
:101E10009A838983EAE4F0E089819A8191838083BF
:101E20000F900F90CF91DF910895DF93CF9300D063
:101E3000CDB7DEB79A838983E8E4F0E089819A819F
:101E4000918380830F900F90CF91DF910895DF935E
:101E5000CF9300D0CDB7DEB79A838983E6E8F0E070
:101E600089819A81918380830F900F90CF91DF9128
:101E70000895DF93CF9300D0CDB7DEB79A838983DF
:101E8000E4E8F0E089819A81918380830F900F903C
:101E9000CF91DF910895DF93CF9300D0CDB7DEB718
:101EA0009A838983E2E8F0E089819A819183808333
:101EB0000F900F90CF91DF910895DF93CF930F9202
:101EC000CDB7DEB7198289818F7B898389818F7D28
:101ED000898389818F7E89838981877F89838981AD
:101EE0008460898389818260898389818E7F8983E7
:101EF000EDE9F0E089818083E9E9F0E087E680831D
:101F0000AAE9B0E0EAE9F0E0808180618C93AAE977
:101F1000B0E0EAE9F0E0808188608C930F90CF9187
:101F2000DF910895DF93CF9300D0CDB7DEB78A83DA
:101F300008C0EBE9F0E0808182958695877081701A
:101F4000898389818823A9F3ECE9F0E08A81808381
:101F50000F900F90CF91DF910895DF93CF9300D032
:101F6000CDB7DEB707C0EBE9F0E08081881F882796
:101F7000881F8A838A818823B1F31982ECE9F0E013
:101F800080810F900F90CF91DF910895DF93CF93D1
:101F90000F92CDB7DEB70E94AD0F89838981863459
:101FA00021F484E1809308026FC08981823421F496
:101FB00085E18093080268C089818C3421F487E12F
:101FC0008093080261C08981823521F486E1809383
:101FD00008025AC08981833521F488E18093080280
:101FE00053C08981813321F481E0809308024CC081
:101FF0008981823321F482E08093080245C089817F
:10200000833321F483E0809308023EC089818433C6
:1020100021F484E08093080237C08981853321F45C
:1020200085E08093080230C08981863321F486E000
:102030008093080229C08981873321F487E0809347
:10204000080222C08981883321F488E08093080245
:102050001BC08981893321F489E08093080214C070
:102060008981813721F48AE0809308020DC089813B
:10207000863521F489E18093080206C0898186377C
:1020800019F48AE180930802809108020F90CF91A1
:10209000DF910895DF93CF93CDB7DEB72E970FB6BC
:1020A000F894DEBF0FBECDBF80E090E0A6E1B3E4C0
:1020B0008B879C87AD87BE876B857C858D859E854C
:1020C00020E030E04AEF54E40E943D02DC01CB0105
:1020D0008F839887A987BA876F81788589859A8544
:1020E00020E030E040E85FE30E94430488232CF4C2
:1020F00081E090E09E838D833FC06F8178858985E4
:102100009A8520E03FEF4FE757E40E94E30318165B
:102110004CF56B857C858D859E8520E030E040E226
:1021200051E40E943D02DC01CB01BC01CD010E94C3
:102130006700DC01CB019E838D830FC088EC90E0AB
:102140009C838B838B819C810197F1F79C838B838C
:102150008D819E8101979E838D838D819E810097C5
:1021600069F714C06F81788589859A850E94670018
:10217000DC01CB019E838D838D819E819A8389832F
:1021800089819A810197F1F79A83898380ED0E9472
:10219000B00D89E10E94E40D87E00E94E40D0E94E9
:1021A0009C0D80ED0E94B00D8BE60E94E40D81E055
:1021B0000E94E40D0E949C0D80ED0E94B00D8AE10A
:1021C0000E94E40D80E00E94E40D0E949C0D80EDD1
:1021D0000E94B00D8BE10E94E40D88E10E94E40DA5
:1021E0000E949C0D80ED0E94B00D88E30E94E40DDA
:1021F00081E00E94E40D0E949C0D2E960FB6F8948B
:10220000DEBF0FBECDBFCF91DF910895DF93CF9397
:10221000CDB7DEB780ED0E94B00D8BE30E94E40DD8
:1022200081ED0E945B0DCF91DF9108950F931F9375
:10223000DF93CF93CDB7DEB70E9406110E94110E37
:10224000882F90E0182F00270E94110E882F90E011
:10225000802B912BAA2797FDA095BA2FBC01CD0109
:102260000E947304DC01CB0180931D0290931E0237
:10227000A0931F02B09320020E94110E882F90E0BD
:10228000182F00270E94110E882F90E0802B912B91
:10229000AA2797FDA095BA2FBC01CD010E94730417
:1022A000DC01CB018093150290931602A0931702D4
:1022B000B09318020E94110E882F90E0182F00276B
:1022C0000E94110E882F90E0802B912BAA2797FD5A
:1022D000A095BA2FBC01CD010E947304DC01CB0193
:1022E0008093090290930A02A0930B02B0930C0210
:1022F0000E94110E882F90E0182F00270E94110EC7
:10230000882F90E0802B912BAA2797FDA095BA2FBC
:10231000BC01CD010E947304DC01CB01809311024A
:1023200090931202A0931302B09314020E94110E14
:10233000882F90E0182F00270E94110E882F90E020
:10234000802B912BAA2797FDA095BA2FBC01CD0118
:102350000E947304DC01CB0180930D0290930E0266
:10236000A0930F02B09310020E94110E882F90E0EC
:10237000182F00270E94110E882F90E0802B912BA0
:10238000AA2797FDA095BA2FBC01CD010E94730426
:10239000DC01CB018093210290932202A0932302BF
:1023A000B09324020E94110E882F90E0182F00276E
:1023B0000E94240E882F90E0802B912BAA2797FD56
:1023C000A095BA2FBC01CD010E947304DC01CB01A2
:1023D0008093190290931A02A0931B02B0931C02DF
:1023E0000E949C0DCF91DF911F910F910895DF9373
:1023F000CF9300D0CDB7DEB70E94370E0E948B0E70
:1024000080E29EE40E94DF0E80E29EE40E94F10ED4
:1024100081E06FEF0E94BD0B80E060E00E94BD0B89
:1024200084E06FEF0E94BD0B8CE697E00E94030FE3
:102430008CE697E00E94270F8CE697E00E94150F2C
:102440008CE697E00E94390F0E945D0F83E062E006
:1024500040E00E94DC0983E063E041E00E94DC0987
:102460000E94C60F8A830E94C60F89838A818431A5
:1024700009F05BC08981833088F484E398E00E948E
:10248000030F84E398E00E94270F84E398E00E9402
:10249000150F84E398E00E94390FE2CF89818330E1
:1024A000A0F08981853088F480EF9AE00E94030FC4
:1024B00080EF9AE00E94270F80EF9AE00E94150FAC
:1024C00080EF9AE00E94390FCBCF89818530A0F050
:1024D0008981883088F480E89CE00E94030F80E8BE
:1024E0009CE00E94270F80E89CE00E94150F80E886
:1024F0009CE00E94390FB4CF8981883008F4B0CFB6
:1025000089818A3008F0ACCF88ED9EE00E94030FED
:1025100088ED9EE00E94270F88ED9EE00E94150F37
:1025200088ED9EE00E94390F9BCF8A81853109F0AA
:102530005BC08981833088F480E090E00E94030FC3
:1025400084E398E00E94270F84E398E00E94150F2F
:1025500080E090E00E94390F83CF89818330A0F022
:102560008981853088F480E090E00E94030F80EF3D
:102570009AE00E94270F80EF9AE00E94150F80E0FA
:1025800090E00E94390F6CCF89818530A0F089815D
:10259000883088F480E090E00E94030F80E89CE09F
:1025A0000E94270F80E89CE00E94150F80E090E0D9
:1025B0000E94390F55CF8981883008F451CF898125
:1025C0008A3008F04DCF80E090E00E94030F88ED44
:1025D0009EE00E94270F88ED9EE00E94150F80E08C
:1025E00090E00E94390F3CCF8A81873109F05BC0AF
:1025F0008981833088F480E090E00E94030F84E3B7
:1026000098E00E94270F80E090E00E94150F84E37D
:1026100098E00E94390F24CF89818330A0F089810E
:10262000853088F480E090E00E94030F80EF9AE00C
:102630000E94270F80E090E00E94150F80EF9AE043
:102640000E94390F0DCF89818530A0F089818830B3
:1026500088F480E090E00E94030F80E89CE00E94F4
:10266000270F80E090E00E94150F80E89CE00E9418
:10267000390FF6CE8981883008F4F2CE89818A300C
:1026800008F0EECE80E090E00E94030F88ED9EE01F
:102690000E94270F80E090E00E94150F88ED9EE0D9
:1026A0000E94390FDDCE8A81863109F05BC08981B5
:1026B000833088F484E398E00E94030F80E090E088
:1026C0000E94270F84E398E00E94150F80E090E0BD
:1026D0000E94390FC5CE89818330A0F08981853071
:1026E00088F480EF9AE00E94030F80E090E00E945F
:1026F000270F80EF9AE00E94150F80E090E00E9483
:10270000390FAECE89818530A0F08981883088F478
:1027100080E89CE00E94030F80E090E00E94270F79
:1027200080E89CE00E94150F80E090E00E94390F45
:1027300097CE8981883008F493CE89818A3008F059
:102740008FCE88ED9EE00E94030F80E090E00E9413
:10275000270F88ED9EE00E94150F80E090E00E9418
:10276000390F7ECE8A81893189F484E398E00E9412
:10277000030F84E398E00E94270F84E398E00E940F
:10278000150F84E398E00E94390F6ACE8A818A315E
:1027900089F48CE697E00E94030F8CE697E00E9494
:1027A000270F8CE697E00E94150F8CE697E00E94B9
:1027B000390F56CE8A81883109F052CE8CE697E0E7
:1027C0000E94030F8CE697E00E94270F8CE697E0AB
:1027D0000E94150F8CE697E00E94390F41CE629F50
:1027E000D001739FF001829FE00DF11D649FE00D09
:1027F000F11D929FF00D839FF00D749FF00D659F6A
:10280000F00D9927729FB00DE11DF91F639FB00D68
:10281000E11DF91FBD01CF0111240895A1E21A2E77
:10282000AA1BBB1BFD010DC0AA1FBB1FEE1FFF1F74
:10283000A217B307E407F50720F0A21BB30BE40BC4
:10284000F50B661F771F881F991F1A9469F760950B
:102850007095809590959B01AC01BD01CF010895C5
:102860002F923F924F925F926F927F928F929F92A0
:10287000AF92BF92CF92DF92EF92FF920F931F938E
:10288000CF93DF93CDB7DEB7CA1BDB0B0FB6F8943F
:10289000DEBF0FBECDBF09942A88398848885F847F
:1028A0006E847D848C849B84AA84B984C884DF80F0
:1028B000EE80FD800C811B81AA81B981CE0FD11DD4
:1028C0000FB6F894DEBF0FBECDBFED010895F894AA
:0228D000FFCF38
:1028D20000000000000000000001020203030303E5
:1028E200040404040404040405050505050505059E
:1028F200050505050505050506060606060606067E
:102902000606060606060606060606060606060665
:10291200060606060606060607070707070707074D
:102922000707070707070707070707070707070735
:102932000707070707070707070707070707070725
:102942000707070707070707070707070707070715
:1029520007070707070707070808080808080808FD
:1029620008080808080808080808080808080808E5
:1029720008080808080808080808080808080808D5
:1029820008080808080808080808080808080808C5
:1029920008080808080808080808080808080808B5
:1029A20008080808080808080808080808080808A5
:1029B2000808080808080808080808080808080895
:1029C2000808080808080808080808080808080885
:0829D2000808080808080808BD
:00000001FF
